{
  "contractName": "Funding",
  "abi": [
    {
      "anonymous": false,
      "inputs": [
        {
          "indexed": false,
          "internalType": "uint256",
          "name": "id",
          "type": "uint256"
        },
        {
          "indexed": false,
          "internalType": "address payable",
          "name": "reciever",
          "type": "address"
        },
        {
          "indexed": false,
          "internalType": "string",
          "name": "name",
          "type": "string"
        },
        {
          "indexed": false,
          "internalType": "string",
          "name": "description",
          "type": "string"
        },
        {
          "indexed": false,
          "internalType": "uint256",
          "name": "fundingGoal",
          "type": "uint256"
        },
        {
          "indexed": false,
          "internalType": "uint256",
          "name": "raisedFunds",
          "type": "uint256"
        },
        {
          "indexed": false,
          "internalType": "bool",
          "name": "completed",
          "type": "bool"
        }
      ],
      "name": "campaignAdded",
      "type": "event"
    },
    {
      "anonymous": false,
      "inputs": [
        {
          "indexed": false,
          "internalType": "uint256",
          "name": "id",
          "type": "uint256"
        },
        {
          "indexed": false,
          "internalType": "address payable",
          "name": "reciever",
          "type": "address"
        },
        {
          "indexed": false,
          "internalType": "address",
          "name": "donor",
          "type": "address"
        },
        {
          "indexed": false,
          "internalType": "string",
          "name": "name",
          "type": "string"
        },
        {
          "indexed": false,
          "internalType": "string",
          "name": "description",
          "type": "string"
        },
        {
          "indexed": false,
          "internalType": "uint256",
          "name": "fundingGoal",
          "type": "uint256"
        },
        {
          "indexed": false,
          "internalType": "uint256",
          "name": "raisedFunds",
          "type": "uint256"
        },
        {
          "indexed": false,
          "internalType": "bool",
          "name": "completed",
          "type": "bool"
        }
      ],
      "name": "campaignEnded",
      "type": "event"
    },
    {
      "inputs": [],
      "name": "campaignCount",
      "outputs": [
        {
          "internalType": "uint256",
          "name": "",
          "type": "uint256"
        }
      ],
      "stateMutability": "view",
      "type": "function",
      "constant": true
    },
    {
      "inputs": [
        {
          "internalType": "uint256",
          "name": "",
          "type": "uint256"
        }
      ],
      "name": "campaigns",
      "outputs": [
        {
          "internalType": "uint256",
          "name": "id",
          "type": "uint256"
        },
        {
          "internalType": "address payable",
          "name": "reciever",
          "type": "address"
        },
        {
          "internalType": "address",
          "name": "donor",
          "type": "address"
        },
        {
          "internalType": "string",
          "name": "name",
          "type": "string"
        },
        {
          "internalType": "string",
          "name": "description",
          "type": "string"
        },
        {
          "internalType": "uint256",
          "name": "fundingGoal",
          "type": "uint256"
        },
        {
          "internalType": "uint256",
          "name": "raisedFunds",
          "type": "uint256"
        },
        {
          "internalType": "bool",
          "name": "completed",
          "type": "bool"
        }
      ],
      "stateMutability": "view",
      "type": "function",
      "constant": true
    },
    {
      "inputs": [
        {
          "internalType": "string",
          "name": "name",
          "type": "string"
        },
        {
          "internalType": "string",
          "name": "description",
          "type": "string"
        },
        {
          "internalType": "uint256",
          "name": "fundingGoal",
          "type": "uint256"
        }
      ],
      "name": "createCampaign",
      "outputs": [],
      "stateMutability": "nonpayable",
      "type": "function"
    },
    {
      "inputs": [
        {
          "internalType": "uint256",
          "name": "id",
          "type": "uint256"
        }
      ],
      "name": "donate",
      "outputs": [],
      "stateMutability": "payable",
      "type": "function",
      "payable": true
    }
  ],
  "bytecode": "0x608060405234801561001057600080fd5b5061119e806100206000396000f3fe60806040526004361061003f5760003560e01c8063141961bc146100445780637274e30d14610088578063f14faf6f146100b3578063ffa56a57146100cf575b600080fd5b34801561005057600080fd5b5061006b60048036038101906100669190610880565b6100f8565b60405161007f9897969594939291906109c9565b60405180910390f35b34801561009457600080fd5b5061009d6102ad565b6040516100aa9190610a55565b60405180910390f35b6100cd60048036038101906100c89190610880565b6102b3565b005b3480156100db57600080fd5b506100f660048036038101906100f19190610ba5565b61061b565b005b6001818154811061010857600080fd5b90600052602060002090600802016000915090508060000154908060010160009054906101000a900473ffffffffffffffffffffffffffffffffffffffff16908060020160009054906101000a900473ffffffffffffffffffffffffffffffffffffffff169080600301805461017d90610c5f565b80601f01602080910402602001604051908101604052809291908181526020018280546101a990610c5f565b80156101f65780601f106101cb576101008083540402835291602001916101f6565b820191906000526020600020905b8154815290600101906020018083116101d957829003601f168201915b50505050509080600401805461020b90610c5f565b80601f016020809104026020016040519081016040528092919081815260200182805461023790610c5f565b80156102845780601f1061025957610100808354040283529160200191610284565b820191906000526020600020905b81548152906001019060200180831161026757829003601f168201915b5050505050908060050154908060060154908060070160009054906101000a900460ff16905088565b60005481565b3373ffffffffffffffffffffffffffffffffffffffff16600182815481106102de576102dd610c90565b5b906000526020600020906008020160010160009054906101000a900473ffffffffffffffffffffffffffffffffffffffff1673ffffffffffffffffffffffffffffffffffffffff160361033057600080fd5b600015156001828154811061034857610347610c90565b5b906000526020600020906008020160070160009054906101000a900460ff1615151461037357600080fd5b6001818154811061038757610386610c90565b5b906000526020600020906008020160010160009054906101000a900473ffffffffffffffffffffffffffffffffffffffff1673ffffffffffffffffffffffffffffffffffffffff166108fc349081150290604051600060405180830381858888f193505050501580156103fe573d6000803e3d6000fd5b50336001828154811061041457610413610c90565b5b906000526020600020906008020160020160006101000a81548173ffffffffffffffffffffffffffffffffffffffff021916908373ffffffffffffffffffffffffffffffffffffffff160217905550346001828154811061047857610477610c90565b5b90600052602060002090600802016006018190555060018082815481106104a2576104a1610c90565b5b906000526020600020906008020160070160006101000a81548160ff0219169083151502179055507fb645adae5a69fcd8f23bbbd67192f3b5473f7d6e29767acaaf141b5f651e19ec8160018381548110610500576104ff610c90565b5b906000526020600020906008020160010160009054906101000a900473ffffffffffffffffffffffffffffffffffffffff16336001858154811061054757610546610c90565b5b90600052602060002090600802016003016001868154811061056c5761056b610c90565b5b90600052602060002090600802016004016001878154811061059157610590610c90565b5b906000526020600020906008020160050154600188815481106105b7576105b6610c90565b5b906000526020600020906008020160060154600189815481106105dd576105dc610c90565b5b906000526020600020906008020160070160009054906101000a900460ff16604051610610989796959493929190610d58565b60405180910390a150565b600083511161062957600080fd5b600082511161063757600080fd5b6000811161064457600080fd5b60016000546106539190610e13565b600081905550600160405180610100016040528060005481526020013373ffffffffffffffffffffffffffffffffffffffff168152602001600073ffffffffffffffffffffffffffffffffffffffff168152602001858152602001848152602001838152602001600081526020016000151581525090806001815401808255809150506001900390600052602060002090600802016000909190919091506000820151816000015560208201518160010160006101000a81548173ffffffffffffffffffffffffffffffffffffffff021916908373ffffffffffffffffffffffffffffffffffffffff16021790555060408201518160020160006101000a81548173ffffffffffffffffffffffffffffffffffffffff021916908373ffffffffffffffffffffffffffffffffffffffff160217905550606082015181600301908161079e9190610fde565b5060808201518160040190816107b49190610fde565b5060a0820151816005015560c0820151816006015560e08201518160070160006101000a81548160ff02191690831515021790555050507f8255be31a2a85d06fe528877a928d80435da95562d69297c980b00a054eff7076000543385858560008060405161082997969594939291906110eb565b60405180910390a1505050565b6000604051905090565b600080fd5b600080fd5b6000819050919050565b61085d8161084a565b811461086857600080fd5b50565b60008135905061087a81610854565b92915050565b60006020828403121561089657610895610840565b5b60006108a48482850161086b565b91505092915050565b6108b68161084a565b82525050565b600073ffffffffffffffffffffffffffffffffffffffff82169050919050565b60006108e7826108bc565b9050919050565b6108f7816108dc565b82525050565b6000610908826108bc565b9050919050565b610918816108fd565b82525050565b600081519050919050565b600082825260208201905092915050565b60005b8381101561095857808201518184015260208101905061093d565b60008484015250505050565b6000601f19601f8301169050919050565b60006109808261091e565b61098a8185610929565b935061099a81856020860161093a565b6109a381610964565b840191505092915050565b60008115159050919050565b6109c3816109ae565b82525050565b6000610100820190506109df600083018b6108ad565b6109ec602083018a6108ee565b6109f9604083018961090f565b8181036060830152610a0b8188610975565b90508181036080830152610a1f8187610975565b9050610a2e60a08301866108ad565b610a3b60c08301856108ad565b610a4860e08301846109ba565b9998505050505050505050565b6000602082019050610a6a60008301846108ad565b92915050565b600080fd5b600080fd5b7f4e487b7100000000000000000000000000000000000000000000000000000000600052604160045260246000fd5b610ab282610964565b810181811067ffffffffffffffff82111715610ad157610ad0610a7a565b5b80604052505050565b6000610ae4610836565b9050610af08282610aa9565b919050565b600067ffffffffffffffff821115610b1057610b0f610a7a565b5b610b1982610964565b9050602081019050919050565b82818337600083830152505050565b6000610b48610b4384610af5565b610ada565b905082815260208101848484011115610b6457610b63610a75565b5b610b6f848285610b26565b509392505050565b600082601f830112610b8c57610b8b610a70565b5b8135610b9c848260208601610b35565b91505092915050565b600080600060608486031215610bbe57610bbd610840565b5b600084013567ffffffffffffffff811115610bdc57610bdb610845565b5b610be886828701610b77565b935050602084013567ffffffffffffffff811115610c0957610c08610845565b5b610c1586828701610b77565b9250506040610c268682870161086b565b9150509250925092565b7f4e487b7100000000000000000000000000000000000000000000000000000000600052602260045260246000fd5b60006002820490506001821680610c7757607f821691505b602082108103610c8a57610c89610c30565b5b50919050565b7f4e487b7100000000000000000000000000000000000000000000000000000000600052603260045260246000fd5b60008190508160005260206000209050919050565b60008154610ce181610c5f565b610ceb8186610929565b94506001821660008114610d065760018114610d1c57610d4f565b60ff198316865281151560200286019350610d4f565b610d2585610cbf565b60005b83811015610d4757815481890152600182019150602081019050610d28565b808801955050505b50505092915050565b600061010082019050610d6e600083018b6108ad565b610d7b602083018a6108ee565b610d88604083018961090f565b8181036060830152610d9a8188610cd4565b90508181036080830152610dae8187610cd4565b9050610dbd60a08301866108ad565b610dca60c08301856108ad565b610dd760e08301846109ba565b9998505050505050505050565b7f4e487b7100000000000000000000000000000000000000000000000000000000600052601160045260246000fd5b6000610e1e8261084a565b9150610e298361084a565b9250828201905080821115610e4157610e40610de4565b5b92915050565b60006020601f8301049050919050565b600082821b905092915050565b600060088302610e947fffffffffffffffffffffffffffffffffffffffffffffffffffffffffffffffff82610e57565b610e9e8683610e57565b95508019841693508086168417925050509392505050565b6000819050919050565b6000610edb610ed6610ed18461084a565b610eb6565b61084a565b9050919050565b6000819050919050565b610ef583610ec0565b610f09610f0182610ee2565b848454610e64565b825550505050565b600090565b610f1e610f11565b610f29818484610eec565b505050565b5b81811015610f4d57610f42600082610f16565b600181019050610f2f565b5050565b601f821115610f9257610f6381610cbf565b610f6c84610e47565b81016020851015610f7b578190505b610f8f610f8785610e47565b830182610f2e565b50505b505050565b600082821c905092915050565b6000610fb560001984600802610f97565b1980831691505092915050565b6000610fce8383610fa4565b9150826002028217905092915050565b610fe78261091e565b67ffffffffffffffff81111561100057610fff610a7a565b5b61100a8254610c5f565b611015828285610f51565b600060209050601f8311600181146110485760008415611036578287015190505b6110408582610fc2565b8655506110a8565b601f19841661105686610cbf565b60005b8281101561107e57848901518255600182019150602085019450602081019050611059565b8683101561109b5784890151611097601f891682610fa4565b8355505b6001600288020188555050505b505050505050565b6000819050919050565b60006110d56110d06110cb846110b0565b610eb6565b61084a565b9050919050565b6110e5816110ba565b82525050565b600060e082019050611100600083018a6108ad565b61110d60208301896108ee565b818103604083015261111f8188610975565b905081810360608301526111338187610975565b905061114260808301866108ad565b61114f60a08301856110dc565b61115c60c08301846109ba565b9897505050505050505056fea264697066735822122024b894266bb16050ed7c5cd294f83968a7aacc978651831bb12d490031b8300364736f6c63430008110033",
  "immutableReferences": {},
  "source": "// SPDX-License-Identifier:UNLICENSED\r\n\r\npragma solidity ^0.8.0;\r\n\r\ncontract Funding{\r\n\r\n    // structure for Each Campaign\r\n    struct Campaign{\r\n        uint id;  //id for every campaign\r\n        address payable reciever; // eth addresss of reciever (payable bcoz transfering eth to this account)\r\n        address donor; // eth address of donor\r\n        string name; \r\n        string description;\r\n        uint fundingGoal; // amount to be donated\r\n        uint raisedFunds; // fundaingGoals - fundingDonated\r\n        bool completed; // if completed no display for that purpose\r\n    }\r\n\r\n    uint public campaignCount; // to update id in campaign and to map in react\r\n    Campaign[] public campaigns; // dictionary maps int => each campaign\r\n\r\n    event campaignAdded(\r\n        uint id,\r\n        address payable reciever,\r\n        string name,\r\n        string description,\r\n        uint fundingGoal,\r\n        uint raisedFunds,\r\n        bool completed\r\n    );\r\n\r\n    event campaignEnded(\r\n        uint id,\r\n        address payable reciever,\r\n        address donor,\r\n        string name,\r\n        string description,\r\n        uint fundingGoal,\r\n        uint raisedFunds,\r\n        bool completed\r\n    );\r\n\r\n    function createCampaign(\r\n        string memory name,\r\n        string memory description,\r\n        uint fundingGoal\r\n    ) public {\r\n        require(bytes(name).length > 0);\r\n        require(bytes(description).length > 0);\r\n        require(fundingGoal > 0);\r\n\r\n        campaignCount = campaignCount + 1;\r\n\r\n        campaigns.push(Campaign(campaignCount,\r\n        payable(msg.sender),\r\n        address(0),\r\n        name,\r\n        description,\r\n        fundingGoal,\r\n        0,\r\n        false\r\n        ));\r\n\r\n        //display create campaign on website using emit to event\r\n        emit campaignAdded(\r\n            campaignCount,\r\n            payable(msg.sender), //older version support msg.sender\r\n            name,\r\n            description,\r\n            fundingGoal,\r\n            0,\r\n            false\r\n        );\r\n    }\r\n\r\n    function donate(uint id) public payable{\r\n\r\n        require(campaigns[id].reciever != msg.sender);\r\n        require(campaigns[id].completed == false);\r\n\r\n        payable(campaigns[id].reciever).transfer(msg.value);\r\n        campaigns[id].donor = msg.sender;\r\n        campaigns[id].raisedFunds = msg.value;\r\n        campaigns[id].completed = true;\r\n\r\n        //mapping again changes to particular id\r\n\r\n        // display ended campaigns in website we use emit\r\n        emit campaignEnded(\r\n            id,\r\n            campaigns[id].reciever,\r\n            msg.sender,\r\n            campaigns[id].name,\r\n            campaigns[id].description,\r\n            campaigns[id].fundingGoal,\r\n            campaigns[id].raisedFunds,\r\n            campaigns[id].completed\r\n        );\r\n    }\r\n}",
  "sourcePath": "E:\\PROJECTS\\CharityFunding\\contracts\\Funding.sol",
  "compiler": {
    "name": "solc",
    "version": "0.8.17+commit.8df45f5f.Emscripten.clang"
  },
  "schemaVersion": "3.4.10",
  "updatedAt": "2022-10-05T06:00:16.308Z",
  "networkType": "ethereum",
  "devdoc": {
    "kind": "dev",
    "methods": {},
    "version": 1
  },
  "userdoc": {
    "kind": "user",
    "methods": {},
    "version": 1
  }
}